:100000000C942A000C943F000C943F000C943F0089
:100010000C943F000C943F000C943F000C943F0064
:100020000C943F000C943F000C943F000C943F0054
:100030000C943F000C943F000C943F000C943F0044
:100040000C943F000C943F000C943F000C943F0034
:100050000C943F0011241FBECFE5D8E0DEBFCDBF1A
:1000600010E0A0E6B0E0E6E5FBE002C005900D92EE
:10007000A436B107D9F70E94AD030C94A9050C94DE
:100080000000DF93CF930F92CDB7DEB7E3E5F0E04A
:10009000808189838981877B898389818864898339
:1000A000E3E5F0E0898180830F90CF91DF9108959F
:1000B000DF93CF930F92CDB7DEB7E3E5F0E0808119
:1000C00089838981887F8983898181608983E3E548
:1000D000F0E0898180830F90CF91DF910895DF93C5
:1000E000CF93CDB7DEB7AFE5B0E0EFE5F0E08081CC
:1000F00080688C93CF91DF910895DF93CF93CDB734
:10010000DEB7AFE5B0E0EFE5F0E080818F778C936C
:10011000CF91DF910895DF93CF93CDB7DEB72A97C4
:100120000FB6F894DEBF0FBECDBF8A836B834C83BE
:1001300019828B81883008F0FCC08C81282F30E038
:100140003A87298789859A85009739F029853A85E4
:100150002130310509F478C0E9C08A81282F30E0C8
:1001600038872F838F8198858130910559F12F81B0
:100170003885223031052CF48F819885009769F0FD
:1001800060C02F8138852230310589F18F819885B3
:100190008330910509F440C054C0AAE3B0E0EAE31B
:1001A000F0E08081482F8B81282F30E081E090E0C3
:1001B000022E02C0880F991F0A94E2F780958423CB
:1001C0008C93B9C0A7E3B0E0E7E3F0E08081482F6B
:1001D0008B81282F30E081E090E0022E02C0880F52
:1001E000991F0A94E2F7809584238C93A4C0A4E31A
:1001F000B0E0E4E3F0E08081482F8B81282F30E0ED
:1002000081E090E0022E02C0880F991F0A94E2F765
:10021000809584238C938FC0A1E3B0E0E1E3F0E00C
:100220008081482F8B81282F30E081E090E0022EE2
:1002300002C0880F991F0A94E2F7809584238C935B
:100240007AC081E0898377C08A81282F30E03E839D
:100250002D838D819E818130910549F12D813E81D3
:10026000223031052CF48D819E81009761F05BC0B6
:100270002D813E812230310571F18D819E81833047
:100280009105E9F150C0AAE3B0E0EAE3F0E0808133
:10029000482F8B81282F30E081E090E0022E02C0B1
:1002A000880F991F0A94E2F7842B8C9344C0A7E32C
:1002B000B0E0E7E3F0E08081482F8B81282F30E029
:1002C00081E090E0022E02C0880F991F0A94E2F7A5
:1002D000842B8C9330C0A4E3B0E0E4E3F0E08081B1
:1002E000482F8B81282F30E081E090E0022E02C061
:1002F000880F991F0A94E2F7842B8C931CC0A1E30A
:10030000B0E0E1E3F0E08081482F8B81282F30E0DE
:1003100081E090E0022E02C0880F991F0A94E2F754
:10032000842B8C9308C081E0898305C081E0898398
:1003300002C081E0898389812A960FB6F894DEBFD6
:100340000FBECDBFCF91DF910895DF93CF93CDB78F
:10035000DEB72A970FB6F894DEBF0FBECDBF8A83F3
:100360006B834C8319828B81883008F0FCC08C81B0
:10037000282F30E03A87298789859A85009739F0B8
:1003800029853A852130310509F478C0E9C08A8190
:10039000282F30E038872F838F8198858130910511
:1003A00059F12F813885223031052CF48F819885C1
:1003B000009769F060C02F8138852230310589F1BE
:1003C0008F8198858330910509F440C054C0ABE318
:1003D000B0E0EBE3F0E08081482F8B81282F30E004
:1003E00081E090E0022E02C0880F991F0A94E2F784
:1003F000809584238C93B9C0A8E3B0E0E8E3F0E0F3
:100400008081482F8B81282F30E081E090E0022E00
:1004100002C0880F991F0A94E2F7809584238C9379
:10042000A4C0A5E3B0E0E5E3F0E08081482F8B8134
:10043000282F30E081E090E0022E02C0880F991F43
:100440000A94E2F7809584238C938FC0A2E3B0E0F6
:10045000E2E3F0E08081482F8B81282F30E081E0BB
:1004600090E0022E02C0880F991F0A94E2F780954F
:1004700084238C937AC081E0898377C08A81282F76
:1004800030E03E832D838D819E818130910549F13D
:100490002D813E81223031052CF48D819E81009783
:1004A00061F05BC02D813E812230310571F18D817B
:1004B0009E8183309105E9F150C0ABE3B0E0EBE3FE
:1004C000F0E08081482F8B81282F30E081E090E0A0
:1004D000022E02C0880F991F0A94E2F7842B8C9396
:1004E00044C0A8E3B0E0E8E3F0E08081482F8B81CE
:1004F000282F30E081E090E0022E02C0880F991F83
:100500000A94E2F7842B8C9330C0A5E3B0E0E5E3D6
:10051000F0E08081482F8B81282F30E081E090E04F
:10052000022E02C0880F991F0A94E2F7842B8C9345
:100530001CC0A2E3B0E0E2E3F0E08081482F8B81B1
:10054000282F30E081E090E0022E02C0880F991F32
:100550000A94E2F7842B8C9308C081E0898305C05C
:1005600081E0898302C081E0898389812A960FB660
:10057000F894DEBF0FBECDBFCF91DF910895DF931A
:10058000CF93CDB7DEB727970FB6F894DEBF0FBE77
:10059000CDBF8A836B835D834C8319828C819D815F
:1005A000009709F478C08B81883008F074C08A8184
:1005B000282F30E03F832E834E815F8141305105EB
:1005C00059F18E819F818230910534F42E813F81D3
:1005D0002115310569F05CC04E815F8142305105C3
:1005E00079F18E819F818330910509F43DC050C01F
:1005F000E9E3F0E08081282F30E08B81882F90E0C4
:10060000A90102C0559547958A95E2F7CA01817004
:10061000EC81FD81808341C0E6E3F0E08081282FFA
:1006200030E08B81882F90E0A90102C05595479555
:100630008A95E2F7CA018170EC81FD8180832DC02B
:10064000E3E3F0E08081282F30E08B81882F90E079
:10065000A90102C0559547958A95E2F7CA018170B4
:10066000EC81FD81808319C0E0E3F0E08081282FD8
:1006700030E08B81882F90E0A90102C05595479505
:100680008A95E2F7CA018170EC81FD81808305C003
:1006900081E0898302C081E08983898127960FB632
:1006A000F894DEBF0FBECDBFCF91DF910895DF93E9
:1006B000CF93CDB7DEB780E060E040E00E948B00D2
:1006C00080E062E040E00E948B0080E061E040E07A
:1006D0000E948B00CF91DF910895DF93CF93CDB728
:1006E000DEB783E060E041E00E948B0083E061E0E0
:1006F00041E00E948B0083E062E041E00E948B00B9
:1007000083E063E041E00E948B00CF91DF91089588
:10071000DF93CF9300D000D0CDB7DEB789836A8353
:100720004B832C8383E060E049810E94A50183E034
:1007300061E04A810E94A50183E062E04B810E9452
:10074000A50183E063E04C810E94A5010F900F900A
:100750000F900F90CF91DF910895DF93CF9300D04A
:100760000F92CDB7DEB70E946D030E94570381E060
:1007700063E041E00E948B000E944100A3E5B0E0ED
:10078000E3E5F0E0808180628C93ECE5F0E010829C
:100790000E94580080E060E09E012F5F3F4FA9015A
:1007A0000E94BF029E012E5F3F4F80E062E0A901E0
:1007B0000E94BF029E012D5F3F4F80E061E0A901D2
:1007C0000E94BF020E944E048981882381F48B819C
:1007D000813069F48A81882351F481E060E041E04E
:1007E00020E00E948803ECE5F0E086E980838981BF
:1007F000882331F48B81813019F48A81813049F06A
:100800008981882381F48B81882369F48A818130EE
:1008100051F481E060E040E020E00E948803ECE5D4
:10082000F0E086E980838981813031F48B818130E9
:1008300019F48A81882349F08981813081F48B8180
:10084000882369F48A81882351F480E060E041E0E4
:1008500020E00E948803ECE5F0E086E9808389814E
:10086000813031F48B81813019F48A81813061F0DB
:100870008981882309F08ECF8B81882309F08ACF64
:100880008A81882309F086CF80E060E040E020E0A4
:100890000E948803ECE5F0E010827CCFDF93CF93D9
:1008A00000D0CDB7DEB71A8257C00E9406058983F3
:1008B00089818823A1F481E060E041E020E00E948A
:1008C0008803ECE5F0E086E9808380E060E040E0CA
:1008D00020E00E948803ECE5F0E010823AC08981B4
:1008E0008130A1F480E060E041E020E00E948803D4
:1008F000ECE5F0E086E9808380E060E040E020E025
:100900000E948803ECE5F0E0108223C089818230E8
:10091000A1F481E060E040E020E00E948803ECE583
:10092000F0E086E9808380E060E040E020E00E9423
:100930008803ECE5F0E010820CC08981833049F433
:1009400080E060E040E020E00E948803ECE5F0E019
:1009500010828A818F5F8A838A81843608F4A5CFCA
:100960000F900F90CF91DF910895A0E0B0E0EBEBF6
:10097000F4E00C945805EC01A880B980CA80DB80B3
:10098000A114B104C104D10441F484E2A82E89ED7C
:10099000B82E8BE5C82E87E0D82EC601B5012DE113
:1009A00033EF41E050E00E94350527EA31E440E0B2
:1009B00050E00E9416057B018C01C601B5012DE1B6
:1009C00033EF41E050E00E943505CA01B9012CEE39
:1009D00034EF4FEF5FEF0E9416056E0D7F1D801FF5
:1009E000911F97FF04C06150704080409048688319
:1009F00079838A839B839B013F77C901CDB7DEB79B
:100A0000EAE00C9474050E94B504089580E690E035
:100A10000E94B5040895A0E0B0E080936000909338
:100A20006100A0936200B09363000895629FD001BB
:100A3000739FF001829FE00DF11D649FE00DF11D99
:100A4000929FF00D839FF00D749FF00D659FF00D48
:100A50009927729FB00DE11DF91F639FB00DE11D35
:100A6000F91FBD01CF011124089597FB092E05261A
:100A70000ED057FD04D04BD00AD0001C38F450954E
:100A80004095309521953F4F4F4F5F4F0895F6F7B2
:100A900090958095709561957F4F8F4F9F4F0895EA
:100AA0002F923F924F925F926F927F928F929F927E
:100AB000AF92BF92CF92DF92EF92FF920F931F936C
:100AC000CF93DF93CDB7DEB7CA1BDB0B0FB6F8941D
:100AD000DEBF0FBECDBF09942A88398848885F845D
:100AE0006E847D848C849B84AA84B984C884DF80CE
:100AF000EE80FD800C811B81AA81B981CE0FD11DB2
:100B00000FB6F894DEBF0FBECDBFED010895A1E290
:100B10001A2EAA1BBB1BFD010DC0AA1FBB1FEE1F77
:100B2000FF1FA217B307E407F50720F0A21BB30BC2
:100B3000E40BF50B661F771F881F991F1A9469F73E
:100B400060957095809590959B01AC01BD01CF019A
:060B50000895F894FFCFA8
:040B5600010000009A
:00000001FF
