:100000000C942A000C9447000C9447000C94470071
:100010000C9447000C9447000C9447000C94470044
:100020000C9447000C9447000C9447000C94470034
:100030000C9447000C9447000C9447000C94470024
:100040000C9447000C9447000C9447000C94470014
:100050000C94470011241FBECFE5D8E0DEBFCDBF12
:1000600011E0A0E6B0E0E2EAF2E202C005900D92F3
:10007000A837B107D9F712E0A8E7B1E001C01D9297
:10008000AA34B107E1F70E9421100C944F110C948F
:100090000000EF92FF920F931F937B018C0120E0F1
:1000A00030E040E05FE40E94490388238CF0C801FF
:1000B000B70120E030E040E05FE40E94C1010E940F
:1000C00007049B01AC01205030404040504806C01E
:1000D000C801B7010E9407049B01AC01B901CA0124
:1000E0001F910F91FF90EF900895A0E0B0E0EBE733
:1000F000F0E00C945B10DC012B01FA019C91923032
:1001000008F439C1EB018881823008F433C194309E
:1001100069F4843009F02FC111969C91119789815F
:10012000981709F428C1A0E6B0E025C1843009F48D
:1001300021C18230A9F4923009F01DC19A01AD01AC
:1001400088E0EA010990AE01E90109929E0181501F
:10015000C1F7E201898111969C918923818308C1AD
:10016000923009F407C112962D903C901397EB0141
:100170008A819B811496AD90BD90CD90DC901797AD
:10018000EC80FD800E811F819101281B390BB90184
:1001900037FF04C066277727621B730B6032710537
:1001A0000CF061C0121613066CF537014801062EDB
:1001B00004C096948794779467940A94D2F721E0C8
:1001C00030E040E050E004C0220F331F441F551FB1
:1001D0006A95D2F721503040404050402E213F21B7
:1001E00040235123211531054105510521F021E01E
:1001F00030E040E050E079018A01E628F72808293C
:1002000019293CC0232BD1F1260E371E350146019A
:10021000062E04C096948794779467940A94D2F734
:1002200021E030E040E050E004C0220F331F441FC3
:10023000551F6A95D2F721503040404050402A2146
:100240003B214C215D21211531054105510521F04E
:1002500021E030E040E050E059016A01A628B728CB
:10026000C828D9280BC0821593052CF01C01AA249C
:10027000BB24650103C0EE24FF24870111969C91E5
:10028000D20111968C91981709F445C0992339F041
:10029000A80197012A193B094C095D0906C0A6016E
:1002A00095012E193F09400B510B57FD08C01182D3
:1002B0003382228224833583468357831DC081E0A5
:1002C00081833382228288279927DC01821B930B4A
:1002D000A40BB50B84839583A683B7830DC0220F2F
:1002E000331F441F551F24833583468357838281E0
:1002F000938101979383828324813581468157813D
:10030000DA01C9010197A109B1098F5F9F4FAF4F72
:10031000BF4328F30BC0918333822282EA0CFB1C7B
:100320000C1D1D1DE482F5820683178383E0808304
:10033000248135814681578157FF1AC0C901AA27F8
:1003400097FDA095BA2F81709070A070B0705695EF
:10035000479537952795822B932BA42BB52B848318
:100360009583A683B7838281938101969383828349
:10037000DF0101C0D201CD01CDB7DEB7E2E10C94BF
:100380007710A0E2B0E0E7ECF1E00C94671069832D
:100390007A838B839C832D833E834F835887E9E048
:1003A000EE2EF12CEC0EFD1ECE010196B7010E943F
:1003B0007F058E010F5E1F4FCE010596B8010E948A
:1003C0007F058A8991E089278A8BC701B801AE0130
:1003D000475E5F4F0E9475000E94AA04A096E6E067
:1003E0000C948310A0E2B0E0E8EFF1E00C94671009
:1003F00069837A838B839C832D833E834F835887C5
:10040000F9E0EF2EF12CEC0EFD1ECE010196B701A6
:100410000E947F058E010F5E1F4FCE010596B80129
:100420000E947F05C701B801AE01475E5F4F0E9481
:1004300075000E94AA04A096E6E00C948310A0E246
:10044000B0E0E5E2F2E00C945B1069837A838B8381
:100450009C832D833E834F835887CE010196BE0136
:10046000675F7F4F0E947F05CE010596BE016F5EDC
:100470007F4F0E947F059985923088F0898982306C
:10048000C8F0943019F4823051F404C0843029F457
:10049000923081F480E690E0C6C0923049F420E0CA
:1004A0009A858A89981321E02A87CE010996BBC0D4
:1004B000823049F420E09A858A89981321E02A8BBA
:1004C000CE014196B0C02D843E844F8458886D88FB
:1004D0007E888F88988CEE24FF248701AA24BB2471
:1004E000650140E050E060E070E0E0E0F0E0C10174
:1004F00081709070892BE9F0E60CF71C081D191D1E
:100500009A01AB012A0D3B1D4C1D5D1D80E090E062
:10051000A0E0B0E0E614F7040805190520F481E036
:1005200090E0A0E0B0E0BA01A901480F591F6A1F8E
:100530007B1FAA0CBB1CCC1CDD1C97FE08C081E0F5
:1005400090E0A0E0B0E0A82AB92ACA2ADB2A3196B6
:10055000E032F10549F0660C771C881C991C569412
:10056000479437942794C3CFFA85EA892B893C892D
:100570008B859C85280F391F2E5F3F4F17C0CA01FE
:1005800081709070892B61F016950795F794E79428
:1005900080E090E0A0E0B0E8E82AF92A0A2B1B2BC3
:1005A00076956795579547952F5F3F4F77FDE7CF36
:1005B0000CC0440F551F661F771F17FD4160EE0CDE
:1005C000FF1C001F111F21503040403090E05907A0
:1005D00090E0690790E4790760F32B8F3C8FDB0193
:1005E000CA018F779070A070B07080349105A1051A
:1005F000B10561F447FD0AC0E114F10401051105DC
:1006000029F0405C5F4F6F4F7F4F40781A8EFE1786
:1006100011F081E08A8F4D8F5E8F6F8F78A383E01A
:10062000898FCE0149960E94AA04A096E2E10C941B
:100630007710A8E1B0E0EFE1F3E00C946710698374
:100640007A838B839C832D833E834F83588789E0F5
:10065000E82EF12CEC0EFD1ECE010196B7010E9492
:100660007F058E010F5E1F4FCE010596B8010E94D7
:100670007F058985823040F08989823028F0C70162
:10068000B8010E94F70501C08FEF6896E6E00C9470
:100690008310A8E1B0E0EFE4F3E00C946710698305
:1006A0007A838B839C832D833E834F83588789E095
:1006B000E82EF12CEC0EFD1ECE010196B7010E9432
:1006C0007F058E010F5E1F4FCE010596B8010E9477
:1006D0007F058985823040F08989823028F0C70102
:1006E000B8010E94F70501C08FEF6896E6E00C9410
:1006F0008310A8E1B0E0EFE7F3E00C9467106983A2
:100700007A838B839C832D833E834F83588789E034
:10071000E82EF12CEC0EFD1ECE010196B7010E94D1
:100720007F058E010F5E1F4FCE010596B8010E9416
:100730007F058985823040F08989823028F0C701A1
:10074000B8010E94F70501C081E06896E6E00C94CC
:100750008310A8E0B0E0EFEAF3E00C9464109B0192
:10076000AC0183E08983DA01C9018827B7FD83954D
:100770009927AA27BB27B82E211531054105510518
:1007800019F482E089833AC08823A9F0203080E000
:10079000380780E0480780E8580729F460E070E0F7
:1007A00080E09FEC30C0EE24FF248701E21AF30AB8
:1007B000040B150B02C079018A018EE1C82ED12CE1
:1007C000DC82CB82ED82FE820F831887C801B701DD
:1007D0000E945B0401971816190684F4082E04C0C1
:1007E000EE0CFF1C001F111F0A94D2F7ED82FE824F
:1007F0000F831887C81AD90ADC82CB82BA82CE014D
:1008000001960E94AA042896E9E00C948010ACE0BE
:10081000B0E0EDE0F4E00C946B1069837A838B8395
:100820009C83CE010196BE016B5F7F4F0E947F05C6
:100830008D81823061F1823050F1843021F48E81DB
:10084000882351F12EC02F81388537FD20C06E815D
:100850002F3131051CF06623F9F023C08EE190E0C2
:10086000821B930B29853A854B855C8504C0569580
:100870004795379527958A95D2F76623B1F050951D
:100880004095309521953F4F4F4F5F4F0EC020E070
:1008900030E040E050E009C02FEF3FEF4FEF5FE75F
:1008A00004C020E030E040E050E8B901CA012C96D5
:1008B000E2E00C948710EF92FF920F931F937B015D
:1008C0008C0180E0E81680E0F80681E0080780E00F
:1008D000180788F48FEFE816F1040105110531F0CF
:1008E00028F088E090E0A0E0B0E017C080E090E061
:1008F000A0E0B0E012C080E0E81680E0F80680E0FA
:10090000080781E0180728F088E190E0A0E0B0E057
:1009100004C080E190E0A0E0B0E020E230E040E000
:1009200050E0281B390B4A0B5B0B04C0169507954A
:10093000F794E7948A95D2F7F701E859FF4F808141
:10094000281B310941095109C9011F910F91FF90DD
:10095000EF900895DF92EF92FF920F931F93FC01A7
:10096000E480F58006811781D1808081823048F44F
:1009700080E090E0A0E1B0E0E82AF92A0A2B1B2BE6
:10098000A5C0843009F49FC0823021F4EE24FF24F6
:10099000870105C0E114F1040105110519F4E0E037
:1009A000F0E096C0628173819FEF623879070CF0A6
:1009B0005BC022E83FEF261B370B2A3131052CF0B4
:1009C00020E030E040E050E02AC0B801A701022E4C
:1009D00004C076956795579547950A94D2F781E0BC
:1009E00090E0A0E0B0E004C0880F991FAA1FBB1FD1
:1009F0002A95D2F70197A109B1098E219F21A02341
:100A0000B1230097A105B10521F081E090E0A0E0BD
:100A1000B0E09A01AB01282B392B4A2B5B2BDA0172
:100A2000C9018F779070A070B07080349105A105D6
:100A3000B10539F427FF09C0205C3F4F4F4F5F4F8E
:100A400004C0215C3F4F4F4F5F4FE0E0F0E02030AB
:100A5000A0E03A07A0E04A07A0E45A0710F0E1E05E
:100A6000F0E079018A0127C06038710564F5FB0167
:100A7000E158FF4FD801C7018F779070A070B07018
:100A800080349105A105B10539F4E7FE0DC080E47D
:100A900090E0A0E0B0E004C08FE390E0A0E0B0E020
:100AA000E80EF91E0A1F1B1F17FF05C016950795B4
:100AB000F794E794319687E016950795F794E794B5
:100AC0008A95D1F705C0EE24FF248701EFEFF0E00F
:100AD0006E2F679566276795902F9F77D794DD24B3
:100AE000D7948E2F8695492F462B582F5D29B70115
:100AF000CA011F910F91FF90EF90DF900895FC01C4
:100B0000DB01408151812281622F6F7770E0221FCB
:100B10002227221F9381892F880F822B282F30E0D4
:100B2000991F9927991F11969C93119721153105AB
:100B3000A9F5411551056105710511F482E037C031
:100B400082E89FEF13969C938E9312979A01AB01C4
:100B500067E0220F331F441F551F6A95D1F783E0CA
:100B60008C930DC0220F331F441F551F12968D9179
:100B70009C911397019713969C938E931297203014
:100B800080E0380780E0480780E4580758F314965F
:100B90002D933D934D935C93179708952F3F310507
:100BA00079F4411551056105710519F484E08C93C0
:100BB000089564FF03C081E08C9312C01C9210C0A2
:100BC0002F57304013963C932E93129783E08C93CB
:100BD00087E0440F551F661F771F8A95D1F7706411
:100BE00014964D935D936D937C93179708951F937F
:100BF000DC01FB019C91923008F447C08081823077
:100C000008F443C0943051F411961C91843099F546
:100C10008181682F70E0611B71093FC0843021F031
:100C2000923031F48230B9F18181882389F12DC06D
:100C300011961C9111978230F1F081811817D9F427
:100C400012962D913C91139782819381821793077D
:100C500094F028173907BCF014968D919D910D9052
:100C6000BC91A02D248135814681578128173907F1
:100C70004A075B0718F4112341F00AC08217930753
:100C8000A407B50740F4112319F061E070E005C036
:100C90006FEF7FEF02C060E070E0CB011F9108951D
:100CA000DF93CF930F92CDB7DEB7E3E5F0E080811D
:100CB00089838981877B8983898188648983E3E546
:100CC000F0E0898180830F90CF91DF910895DF93C9
:100CD000CF930F92CDB7DEB7E3E5F0E08081898353
:100CE0008981887F8983898181608983E3E5F0E058
:100CF000898180830F90CF91DF910895DF93CF9307
:100D0000CDB7DEB72A970FB6F894DEBF0FBECDBFC2
:100D10008A836B834C8319828B81883008F0FCC0F6
:100D20008C81282F30E03A87298789859A8500971A
:100D300039F029853A852130310509F478C0E9C0B8
:100D40008A81282F30E038872F838F8198858130E2
:100D5000910559F12F813885223031052CF48F818E
:100D60009885009769F060C02F8138852230310561
:100D700089F18F8198858330910509F440C054C072
:100D8000AAE3B0E0EAE3F0E08081482F8B81282FCE
:100D900030E081E090E0022E02C0880F991F0A9493
:100DA000E2F7809584238C93B9C0A7E3B0E0E7E332
:100DB000F0E08081482F8B81282F30E081E090E0A7
:100DC000022E02C0880F991F0A94E2F780958423AF
:100DD0008C93A4C0A4E3B0E0E4E3F0E08081482F6A
:100DE0008B81282F30E081E090E0022E02C0880F36
:100DF000991F0A94E2F7809584238C938FC0A1E316
:100E0000B0E0E1E3F0E08081482F8B81282F30E0D3
:100E100081E090E0022E02C0880F991F0A94E2F749
:100E2000809584238C937AC081E0898377C08A81FE
:100E3000282F30E03E832D838D819E818130910566
:100E400049F12D813E81223031052CF48D819E8126
:100E5000009761F05BC02D813E812230310571F138
:100E60008D819E8183309105E9F150C0AAE3B0E005
:100E7000EAE3F0E08081482F8B81282F30E081E089
:100E800090E0022E02C0880F991F0A94E2F7842B8B
:100E90008C9344C0A7E3B0E0E7E3F0E08081482F03
:100EA0008B81282F30E081E090E0022E02C0880F75
:100EB000991F0A94E2F7842B8C9330C0A4E3B0E02E
:100EC000E4E3F0E08081482F8B81282F30E081E03F
:100ED00090E0022E02C0880F991F0A94E2F7842B3B
:100EE0008C931CC0A1E3B0E0E1E3F0E08081482FE7
:100EF0008B81282F30E081E090E0022E02C0880F25
:100F0000991F0A94E2F7842B8C9308C081E08983AF
:100F100005C081E0898302C081E0898389812A96A6
:100F20000FB6F894DEBF0FBECDBFCF91DF9108950D
:100F3000DF93CF93CDB7DEB72A970FB6F894DEBF15
:100F40000FBECDBF8A836B834C8319828B8188301F
:100F500008F0FCC08C81282F30E03A8729878985EA
:100F60009A85009739F029853A852130310509F4B1
:100F700078C0E9C08A81282F30E038872F838F819D
:100F800098858130910559F12F81388522303105BE
:100F90002CF48F819885009769F060C02F81388587
:100FA0002230310589F18F8198858330910509F4CC
:100FB00040C054C0ABE3B0E0EBE3F0E08081482FE9
:100FC0008B81282F30E081E090E0022E02C0880F54
:100FD000991F0A94E2F7809584238C93B9C0A8E303
:100FE000B0E0E8E3F0E08081482F8B81282F30E0EB
:100FF00081E090E0022E02C0880F991F0A94E2F768
:10100000809584238C93A4C0A5E3B0E0E5E3F0E0F1
:101010008081482F8B81282F30E081E090E0022EE4
:1010200002C0880F991F0A94E2F7809584238C935D
:101030008FC0A2E3B0E0E2E3F0E08081482F8B8133
:10104000282F30E081E090E0022E02C0880F991F27
:101050000A94E2F7809584238C937AC081E0898397
:1010600077C08A81282F30E03E832D838D819E8139
:101070008130910549F12D813E81223031052CF4DA
:101080008D819E81009761F05BC02D813E81223071
:10109000310571F18D819E8183309105E9F150C058
:1010A000ABE3B0E0EBE3F0E08081482F8B81282FA9
:1010B00030E081E090E0022E02C0880F991F0A9470
:1010C000E2F7842B8C9344C0A8E3B0E0E8E3F0E0BF
:1010D0008081482F8B81282F30E081E090E0022E24
:1010E00002C0880F991F0A94E2F7842B8C9330C0BA
:1010F000A5E3B0E0E5E3F0E08081482F8B81282F65
:1011000030E081E090E0022E02C0880F991F0A941F
:10111000E2F7842B8C931CC0A2E3B0E0E2E3F0E0A2
:101120008081482F8B81282F30E081E090E0022ED3
:1011300002C0880F991F0A94E2F7842B8C9308C091
:1011400081E0898305C081E0898302C081E08983D1
:1011500089812A960FB6F894DEBF0FBECDBFCF911E
:10116000DF910895DF93CF93CDB7DEB727970FB602
:10117000F894DEBF0FBECDBF8A836B835D834C8343
:1011800019828C819D81009709F478C08B81883009
:1011900008F074C08A81282F30E03F832E834E816F
:1011A0005F814130510559F18E819F8182309105D7
:1011B00034F42E813F812115310569F05CC04E81E8
:1011C0005F814230510579F18E819F818330910595
:1011D00009F43DC050C0E9E3F0E08081282F30E001
:1011E0008B81882F90E0A90102C0559547958A957B
:1011F000E2F7CA018170EC81FD81808341C0E6E3A2
:10120000F0E08081282F30E08B81882F90E0A901C9
:1012100002C0559547958A95E2F7CA018170EC8125
:10122000FD8180832DC0E3E3F0E08081282F30E052
:101230008B81882F90E0A90102C0559547958A952A
:10124000E2F7CA018170EC81FD81808319C0E0E37F
:10125000F0E08081282F30E08B81882F90E0A90179
:1012600002C0559547958A95E2F7CA018170EC81D5
:10127000FD81808305C081E0898302C081E089838C
:10128000898127960FB6F894DEBF0FBECDBFCF91F0
:10129000DF910895DF93CF93CDB7DEB780E060E0B4
:1012A00040E00E947E0680E062E040E00E947E0610
:1012B00080E061E040E00E947E06CF91DF910895DA
:1012C000DF93CF93CDB7DEB783E060E041E00E94CB
:1012D0007E0683E061E041E00E947E0683E062E0FA
:1012E00041E00E947E0683E063E041E00E947E06CA
:1012F000CF91DF910895DF93CF9300D000D0CDB789
:10130000DEB789836A834B832C8383E060E0498165
:101310000E94980783E061E04A810E94980783E079
:1013200062E04B810E94980783E063E04C810E9459
:1013300098070F900F900F900F90CF91DF91089525
:10134000DF93CF9300D0CDB7DEB7809149028823D9
:1013500059F480913802882339F480913D02882322
:1013600019F41A82198276C080914902882369F49F
:1013700080913802882349F480913D02813029F41C
:1013800081E090E09A83898365C080914902882337
:1013900069F480913802813049F480913D028823BC
:1013A00029F482E090E09A83898354C080914902B5
:1013B000882369F480913802813049F480913D029C
:1013C000813029F483E090E09A83898343C080913F
:1013D0004902813069F480913802882349F4809170
:1013E0003D02882329F484E090E09A83898332C007
:1013F00080914902813069F480913802882349F450
:1014000080913D02813029F485E090E09A838983C0
:1014100021C080914902813069F480913802813085
:1014200049F480913D02882329F486E090E09A8374
:10143000898310C080914902813061F48091380223
:10144000813041F480913D02813021F487E090E0C9
:101450009A83898389819A810F900F90CF91DF9130
:101460000895DF93CF93CDB7DEB728970FB6F894E2
:10147000DEBF0FBECDBF98878F838F819885829501
:101480009295907F9827807F9827FC01E858FE4F1F
:1014900080819181A281B3818B839C83AD83BE8344
:1014A0001A8219823DC08F81988529813A81880FDF
:1014B000991F880F991F820F931F880F991F880FFC
:1014C000991FFC01E858FE4F80819181A281B38170
:1014D000BC01CD012B813C814D815E810E941903AD
:1014E0001816CCF48F81988529813A81880F991F2D
:1014F000880F991F820F931F880F991F880F991FBC
:10150000FC01E858FE4F80819181A281B3818B83D9
:101510009C83AD83BE8389819A8101969A83898356
:1015200089819A81833091050CF4BDCF8B819C8198
:10153000AD81BE81BC01CD0128960FB6F894DEBF07
:101540000FBECDBFCF91DF910895DF93CF93CDB77D
:10155000DEB72A970FB6F894DEBF0FBECDBF9A87CD
:10156000898789859A8582959295907F9827807F33
:101570009827FC01E858FE4F80819181A281B381B8
:101580008B839C83AD83BE831A82198241C0898577
:101590009A8529813A81880F991F880F991F820F98
:1015A000931F880F991F880F991FFC01E858FE4F61
:1015B00080819181A281B381BC01CD012B813C81CD
:1015C0004D815E810E9419031816ECF489859A8575
:1015D00029813A81880F991F880F991F820F931FC5
:1015E000880F991F880F991FFC01E858FE4F8081D2
:1015F0009181A281B3818B839C83AD83BE838981DA
:101600009A8198878F8389819A8101969A838983A9
:1016100089819A81833091050CF4B9CF8F819885A7
:101620002A960FB6F894DEBF0FBECDBFCF91DF91E3
:101630000895AF92BF92CF92DF92EF92FF920F93F5
:101640001F93DF93CF9300D000D000D0CDB7DEB78B
:101650009A8389837C836B835E834D838091470269
:10166000882F90E02B813C81880F991F880F991F4C
:10167000820F931F880F991F880F991FFC01E8584C
:10168000FE4F80819181A281B38180934302909328
:101690004402A0934502B09346020E94A0090E9412
:1016A000310ADC01CB0180933F0290934002A0936A
:1016B0004102B0934202209170013091710140913A
:1016C00072015091730160E070E080E89FE30E9436
:1016D000C101DC01CB0120914302309144024091D1
:1016E000450250914602BC01CD010E941F02DC015F
:1016F000CB015C016D018D819E81AA2797FDA0958C
:10170000BA2FBC01CD010E94A9037B018C018091FD
:10171000740190917501A0917601B09177012091AB
:101720003F02309140024091410250914202BC017F
:10173000CD010E941F02DC01CB019C01AD01C8015B
:10174000B7010E94F201DC01CB01209170013091C0
:1017500071014091720150917301BC01CD010E9451
:101760001F02DC01CB019C01AD01C601B5010E9445
:10177000F201DC01CB018093390290933A02A093ED
:101780003B02B0933C0280914702882F90E06B812E
:101790007C812091390230913A0240913B02509174
:1017A0003C02880F991F880F991F860F971F880F7B
:1017B000991F880F991FFC01E858FE4F2083318341
:1017C0004283538326960FB6F894DEBF0FBECDBF7B
:1017D000CF91DF911F910F91FF90EF90DF90CF900D
:1017E000BF90AF900895DF93CF93CDB7DEB781E080
:1017F00060E041E020E00E947B09ECE5F0E086E952
:101800008083CF91DF910895DF93CF93CDB7DEB77B
:1018100080E060E040E020E00E947B09ECE5F0E041
:101820001082CF91DF910895DF93CF93CDB7DEB7CC
:1018300081E060E040E020E00E947B09ECE5F0E020
:1018400086E98083CF91DF910895DF93CF93CDB761
:10185000DEB780E060E041E020E00E947B09ECE53B
:10186000F0E086E98083CF91DF910895DF93CF93F5
:10187000CDB7DEB7E8970FB6F894DEBF0FBECDBF89
:101880000E94A0098093470280914702882F90E030
:101890000E94A50A8093480280914802882309F09B
:1018A00077C00E94F30B80E090E8ABEBB4E48DAB23
:1018B0009EABAFABB8AF6DA97EA98FA998AD20E064
:1018C00030E04AEF54E40E941F02DC01CB0189ABF7
:1018D0009AABABABBCAB69A97AA98BA99CA920E058
:1018E00030E040E85FE30E94790388232CF481E034
:1018F00090E098AB8FA73FC069A97AA98BA99CA952
:1019000020E03FEF4FE757E40E94190318164CF50B
:101910006DA97EA98FA998AD20E030E040E251E4A6
:101920000E941F02DC01CB01BC01CD010E944900D5
:10193000DC01CB0198AB8FA70FC088EC90E09EA78D
:101940008DA78DA59EA50197F1F79EA78DA78FA5C1
:1019500098A9019798AB8FA78FA598A9009769F7C9
:1019600014C069A97AA98BA99CA90E944900DC012D
:10197000CB0198AB8FA78FA598A99CA78BA78BA508
:101980009CA50197F1F79CA78BA70E94040C71C13D
:1019900080914802813009F077C00E94250C80E0D8
:1019A00090E8ABEBB4E48FA398A7A9A7BAA76FA15F
:1019B00078A589A59AA520E030E04AEF54E40E947A
:1019C0001F02DC01CB018BA39CA3ADA3BEA36BA123
:1019D0007CA18DA19EA120E030E040E85FE30E9461
:1019E000790388232CF481E090E09AA389A33FC077
:1019F0006BA17CA18DA19EA120E03FEF4FE757E4B2
:101A00000E94190318164CF56FA178A589A59AA50F
:101A100020E030E040E251E40E941F02DC01CB01F3
:101A2000BC01CD010E944900DC01CB019AA389A32E
:101A30000FC088EC90E098A38F8F8F8D98A10197AD
:101A4000F1F798A38F8F89A19AA101979AA389A3EF
:101A500089A19AA1009769F714C06BA17CA18DA1FF
:101A60009EA10E944900DC01CB019AA389A389A110
:101A70009AA19E8F8D8F8D8D9E8D0197F1F79E8FF0
:101A80008D8F0E94040CF5C080914802823009F0CD
:101A900077C00E94140C80E090E8ABEBB4E4898F2F
:101AA0009A8FAB8FBC8F698D7A8D8B8D9C8D20E04A
:101AB00030E04AEF54E40E941F02DC01CB018D8B21
:101AC0009E8BAF8BB88F6D897E898F89988D20E032
:101AD00030E040E85FE30E94790388232CF481E042
:101AE00090E09C8B8B8B3FC06D897E898F89988D10
:101AF00020E03FEF4FE757E40E94190318164CF51A
:101B0000698D7A8D8B8D9C8D20E030E040E251E430
:101B10000E941F02DC01CB01BC01CD010E944900E3
:101B2000DC01CB019C8B8B8B0FC088EC90E09A8BF7
:101B3000898B89899A890197F1F79A8B898B8B898F
:101B40009C8901979C8B8B8B8B899C89009769F76B
:101B500014C06D897E898F89988D0E944900DC01AF
:101B6000CB019C8B8B8B8B899C89988B8F878F85E6
:101B700098890197F1F7988B8F870E94040C79C0A0
:101B800080914802833009F074C00E94040C80E008
:101B900090E8ABEBB4E48B879C87AD87BE876B8501
:101BA0007C858D859E8520E030E04AEF54E40E94DC
:101BB0001F02DC01CB018F839887A987BA876F81C9
:101BC000788589859A8520E030E040E85FE30E94CF
:101BD000790388232CF481E090E09E838D833FC0BD
:101BE0006F81788589859A8520E03FEF4FE757E43C
:101BF0000E94190318164CF56B857C858D859E8592
:101C000020E030E040E251E40E941F02DC01CB0101
:101C1000BC01CD010E944900DC01CB019E838D8374
:101C20000FC088EC90E09C838B838B819C81019713
:101C3000F1F79C838B838D819E8101979E838D8399
:101C40008D819E81009769F714C06F8178858985A1
:101C50009A850E944900DC01CB019E838D838D8192
:101C60009E819A83898389819A810197F1F79A836A
:101C70008983E8960FB6F894DEBF0FBECDBFCF9133
:101C8000DF910895DF93CF9300D0CDB7DEB71A82EE
:101C9000CFC10E94E31089830E94A009809347026C
:101CA0008981882309F068C00E94F30B0E94040C0C
:101CB00080914902882309F047C080913802813021
:101CC00009F042C080913D028823F1F580914702DE
:101CD000482F50E08981282F30E0CA01880F991FD2
:101CE000880F991F820F931F880F991FFC01E850DE
:101CF000FE4F85E090E0918380830E94A00980934D
:101D00003E0280913E02682F70E08981A82FB0E0EA
:101D100080914702482F50E08981282F30E0CA0186
:101D2000880F991F880F991F820F931F880F991F83
:101D3000FC01E850FE4F808191819C01CB01BD01E7
:101D4000A9010E94190B71C180914702482F50E0F0
:101D50008981282F30E0CA01880F991F880F991FA9
:101D6000820F931F880F991FFC01E850FE4F8FEFE1
:101D70009FEF9183808359C18981813009F074C0BC
:101D80000E94250C0E94040C80914902882341F492
:101D900080913802813021F480913D02813071F0D0
:101DA00080914902882309F047C080913802882336
:101DB00009F042C080913D028130F1F580914702E7
:101DC000482F50E08981282F30E0CA01880F991FE1
:101DD000880F991F820F931F880F991FFC01E850ED
:101DE000FE4F85E090E0918380830E94A00980935C
:101DF0003E0280913E02682F70E08981A82FB0E0FA
:101E000080914702482F50E08981282F30E0CA0195
:101E1000880F991F880F991F820F931F880F991F92
:101E2000FC01E850FE4F808191819C01CB01BD01F6
:101E3000A9010E94190BF9C080914702482F50E078
:101E40008981282F30E0CA01880F991F880F991FB8
:101E5000820F931F880F991FFC01E850FE4F8FEFF0
:101E60009FEF91838083E1C08981823009F074C043
:101E70000E94140C0E94040C80914902813041F4AC
:101E800080913802882321F480913D02882371F0EB
:101E900080914902813009F047C080913802813039
:101EA00009F042C080913D028823F1F580914702FC
:101EB000482F50E08981282F30E0CA01880F991FF0
:101EC000880F991F820F931F880F991FFC01E850FC
:101ED000FE4F85E090E0918380830E94A00980936B
:101EE0003E0280913E02682F70E08981A82FB0E009
:101EF00080914702482F50E08981282F30E0CA01A5
:101F0000880F991F880F991F820F931F880F991FA1
:101F1000FC01E850FE4F808191819C01CB01BD0105
:101F2000A9010E94190B81C080914702482F50E0FF
:101F30008981282F30E0CA01880F991F880F991FC7
:101F4000820F931F880F991FFC01E850FE4F8FEFFF
:101F50009FEF9183808369C08981833009F065C0D8
:101F60000E94040C80914902813009F047C08091A1
:101F70003802813009F042C080913D028130F1F594
:101F800080914702482F50E08981282F30E0CA0114
:101F9000880F991F880F991F820F931F880F991F11
:101FA000FC01E850FE4F85E090E0918380830E9421
:101FB000A00980933E0280913E02682F70E08981E3
:101FC000A82FB0E080914702482F50E08981282F48
:101FD00030E0CA01880F991F880F991F820F931F45
:101FE000880F991FFC01E850FE4F808191819C0170
:101FF000CB01BD01A9010E94190B17C080914702B6
:10200000482F50E08981282F30E0CA01880F991F9E
:10201000880F991F820F931F880F991FFC01E850AA
:10202000FE4F8FEF9FEF918380838A818F5F8A833A
:102030008A81843608F42DCE0F900F90CF91DF91D6
:102040000895DF93CF9300D00F92CDB7DEB70E94F3
:1020500060090E944A0981E063E041E00E947E0637
:102060000E945006A3E5B0E0E3E5F0E080818062E5
:102070008C93ECE5F0E010820E94670680E060E05F
:102080009E012F5F3F4FA9010E94B2089E012E5F63
:102090003F4F80E062E0A9010E94B2089E012D5FDF
:1020A0003F4F80E061E0A9010E94B2080E94420E09
:1020B0000E94360CE3CF2F923F924F925F926F9225
:1020C0007F928F929F92AF92BF92CF92DF92EF92C8
:1020D000FF920F931F93CF93DF93CDB7DEB7CA1B49
:1020E000DB0B0FB6F894DEBF0FBECDBF09942A8874
:1020F000398848885F846E847D848C849B84AA841C
:10210000B984C884DF80EE80FD800C811B81AA81A8
:10211000B981CE0FD11D0FB6F894DEBF0FBECDBF73
:10212000ED010895A0E0B0E0E8E9F0E10C9463105F
:10213000EC01A880B980CA80DB80A114B104C1047D
:10214000D10441F484E2A82E89EDB82E8BE5C82E87
:1021500087E0D82EC601B5012DE133EF41E050E014
:102160000E94121127EA31E440E050E00E94F3108F
:102170007B018C01C601B5012DE133EF41E050E058
:102180000E941211CA01B9012CEE34EF4FEF5FEF3C
:102190000E94F3106E0D7F1D801F911F97FF04C0DA
:1021A0006150704080409048688379838A839B8324
:1021B0009B013F77C901CDB7DEB7EAE00C947F10F1
:1021C0000E949210089588E691E00E94921008956E
:1021D000A0E0B0E08093680190936901A0936A0148
:1021E000B0936B010895629FD001739FF001829FAD
:1021F000E00DF11D649FE00DF11D929FF00D839F96
:10220000F00D749FF00D659FF00D9927729FB00D32
:10221000E11DF91F639FB00DE11DF91FBD01CF0145
:102220001124089597FB092E05260ED057FD04D0E2
:1022300014D00AD0001C38F4509540953095219563
:102240003F4F4F4F5F4F0895F6F7909580957095EB
:1022500061957F4F8F4F9F4F0895A1E21A2EAA1BC1
:10226000BB1BFD010DC0AA1FBB1FEE1FFF1FA21746
:10227000B307E407F50720F0A21BB30BE40BF50B43
:10228000661F771F881F991F1A9469F760957095CC
:10229000809590959B01AC01BD01CF010895F89404
:0222A000FFCF6E
:1022A200000000000000000000010202030303031B
:1022B20004040404040404040505050505050505D4
:1022C20005050505050505050606060606060606B4
:1022D200060606060606060606060606060606069C
:1022E2000606060606060606070707070707070784
:1022F200070707070707070707070707070707076C
:10230200070707070707070707070707070707075B
:10231200070707070707070707070707070707074B
:102322000707070707070707080808080808080833
:10233200080808080808080808080808080808081B
:10234200080808080808080808080808080808080B
:1023520008080808080808080808080808080808FB
:1023620008080808080808080808080808080808EB
:1023720008080808080808080808080808080808DB
:1023820008080808080808080808080808080808CB
:1023920008080808080808080808080808080808BB
:1023A20008080808080808080100000000010203E4
:0823B200CDCC4C3FCDCC4C3FDB
:00000001FF
